{
  "contractName": "Token",
  "abi": [
    {
      "inputs": [
        {
          "internalType": "string",
          "name": "parent1",
          "type": "string"
        },
        {
          "internalType": "string",
          "name": "parent2",
          "type": "string"
        }
      ],
      "stateMutability": "nonpayable",
      "type": "constructor"
    },
    {
      "anonymous": false,
      "inputs": [
        {
          "indexed": true,
          "internalType": "address",
          "name": "owner",
          "type": "address"
        },
        {
          "indexed": true,
          "internalType": "address",
          "name": "approved",
          "type": "address"
        },
        {
          "indexed": true,
          "internalType": "uint256",
          "name": "tokenId",
          "type": "uint256"
        }
      ],
      "name": "Approval",
      "type": "event"
    },
    {
      "anonymous": false,
      "inputs": [
        {
          "indexed": true,
          "internalType": "address",
          "name": "owner",
          "type": "address"
        },
        {
          "indexed": true,
          "internalType": "address",
          "name": "operator",
          "type": "address"
        },
        {
          "indexed": false,
          "internalType": "bool",
          "name": "approved",
          "type": "bool"
        }
      ],
      "name": "ApprovalForAll",
      "type": "event"
    },
    {
      "anonymous": false,
      "inputs": [
        {
          "indexed": true,
          "internalType": "address",
          "name": "from",
          "type": "address"
        },
        {
          "indexed": true,
          "internalType": "address",
          "name": "to",
          "type": "address"
        },
        {
          "indexed": true,
          "internalType": "uint256",
          "name": "tokenId",
          "type": "uint256"
        }
      ],
      "name": "Transfer",
      "type": "event"
    },
    {
      "inputs": [
        {
          "internalType": "address",
          "name": "to",
          "type": "address"
        },
        {
          "internalType": "uint256",
          "name": "tokenId",
          "type": "uint256"
        }
      ],
      "name": "approve",
      "outputs": [],
      "stateMutability": "nonpayable",
      "type": "function"
    },
    {
      "inputs": [
        {
          "internalType": "address",
          "name": "owner",
          "type": "address"
        }
      ],
      "name": "balanceOf",
      "outputs": [
        {
          "internalType": "uint256",
          "name": "",
          "type": "uint256"
        }
      ],
      "stateMutability": "view",
      "type": "function",
      "constant": true
    },
    {
      "inputs": [],
      "name": "baseURI",
      "outputs": [
        {
          "internalType": "string",
          "name": "",
          "type": "string"
        }
      ],
      "stateMutability": "view",
      "type": "function",
      "constant": true
    },
    {
      "inputs": [],
      "name": "contractOwner",
      "outputs": [
        {
          "internalType": "address",
          "name": "",
          "type": "address"
        }
      ],
      "stateMutability": "view",
      "type": "function",
      "constant": true
    },
    {
      "inputs": [
        {
          "internalType": "uint256",
          "name": "tokenId",
          "type": "uint256"
        }
      ],
      "name": "getApproved",
      "outputs": [
        {
          "internalType": "address",
          "name": "",
          "type": "address"
        }
      ],
      "stateMutability": "view",
      "type": "function",
      "constant": true
    },
    {
      "inputs": [
        {
          "internalType": "address",
          "name": "owner",
          "type": "address"
        },
        {
          "internalType": "address",
          "name": "operator",
          "type": "address"
        }
      ],
      "name": "isApprovedForAll",
      "outputs": [
        {
          "internalType": "bool",
          "name": "",
          "type": "bool"
        }
      ],
      "stateMutability": "view",
      "type": "function",
      "constant": true
    },
    {
      "inputs": [],
      "name": "name",
      "outputs": [
        {
          "internalType": "string",
          "name": "",
          "type": "string"
        }
      ],
      "stateMutability": "view",
      "type": "function",
      "constant": true
    },
    {
      "inputs": [
        {
          "internalType": "uint256",
          "name": "tokenId",
          "type": "uint256"
        }
      ],
      "name": "ownerOf",
      "outputs": [
        {
          "internalType": "address",
          "name": "",
          "type": "address"
        }
      ],
      "stateMutability": "view",
      "type": "function",
      "constant": true
    },
    {
      "inputs": [
        {
          "internalType": "address",
          "name": "from",
          "type": "address"
        },
        {
          "internalType": "address",
          "name": "to",
          "type": "address"
        },
        {
          "internalType": "uint256",
          "name": "tokenId",
          "type": "uint256"
        }
      ],
      "name": "safeTransferFrom",
      "outputs": [],
      "stateMutability": "nonpayable",
      "type": "function"
    },
    {
      "inputs": [
        {
          "internalType": "address",
          "name": "from",
          "type": "address"
        },
        {
          "internalType": "address",
          "name": "to",
          "type": "address"
        },
        {
          "internalType": "uint256",
          "name": "tokenId",
          "type": "uint256"
        },
        {
          "internalType": "bytes",
          "name": "_data",
          "type": "bytes"
        }
      ],
      "name": "safeTransferFrom",
      "outputs": [],
      "stateMutability": "nonpayable",
      "type": "function"
    },
    {
      "inputs": [
        {
          "internalType": "address",
          "name": "operator",
          "type": "address"
        },
        {
          "internalType": "bool",
          "name": "approved",
          "type": "bool"
        }
      ],
      "name": "setApprovalForAll",
      "outputs": [],
      "stateMutability": "nonpayable",
      "type": "function"
    },
    {
      "inputs": [
        {
          "internalType": "bytes4",
          "name": "interfaceId",
          "type": "bytes4"
        }
      ],
      "name": "supportsInterface",
      "outputs": [
        {
          "internalType": "bool",
          "name": "",
          "type": "bool"
        }
      ],
      "stateMutability": "view",
      "type": "function",
      "constant": true
    },
    {
      "inputs": [],
      "name": "symbol",
      "outputs": [
        {
          "internalType": "string",
          "name": "",
          "type": "string"
        }
      ],
      "stateMutability": "view",
      "type": "function",
      "constant": true
    },
    {
      "inputs": [
        {
          "internalType": "uint256",
          "name": "index",
          "type": "uint256"
        }
      ],
      "name": "tokenByIndex",
      "outputs": [
        {
          "internalType": "uint256",
          "name": "",
          "type": "uint256"
        }
      ],
      "stateMutability": "view",
      "type": "function",
      "constant": true
    },
    {
      "inputs": [
        {
          "internalType": "address",
          "name": "owner",
          "type": "address"
        },
        {
          "internalType": "uint256",
          "name": "index",
          "type": "uint256"
        }
      ],
      "name": "tokenOfOwnerByIndex",
      "outputs": [
        {
          "internalType": "uint256",
          "name": "",
          "type": "uint256"
        }
      ],
      "stateMutability": "view",
      "type": "function",
      "constant": true
    },
    {
      "inputs": [
        {
          "internalType": "uint256",
          "name": "tokenId",
          "type": "uint256"
        }
      ],
      "name": "tokenURI",
      "outputs": [
        {
          "internalType": "string",
          "name": "",
          "type": "string"
        }
      ],
      "stateMutability": "view",
      "type": "function",
      "constant": true
    },
    {
      "inputs": [],
      "name": "totalSupply",
      "outputs": [
        {
          "internalType": "uint256",
          "name": "",
          "type": "uint256"
        }
      ],
      "stateMutability": "view",
      "type": "function",
      "constant": true
    },
    {
      "inputs": [
        {
          "internalType": "address",
          "name": "from",
          "type": "address"
        },
        {
          "internalType": "address",
          "name": "to",
          "type": "address"
        },
        {
          "internalType": "uint256",
          "name": "tokenId",
          "type": "uint256"
        }
      ],
      "name": "transferFrom",
      "outputs": [],
      "stateMutability": "nonpayable",
      "type": "function"
    },
    {
      "inputs": [
        {
          "internalType": "uint256",
          "name": "tokenId1",
          "type": "uint256"
        },
        {
          "internalType": "uint256",
          "name": "tokenId2",
          "type": "uint256"
        },
        {
          "internalType": "string",
          "name": "_tokenURI",
          "type": "string"
        }
      ],
      "name": "breedNFT",
      "outputs": [],
      "stateMutability": "nonpayable",
      "type": "function"
    },
    {
      "inputs": [
        {
          "internalType": "string",
          "name": "_tokenURI",
          "type": "string"
        }
      ],
      "name": "mintNewNFT",
      "outputs": [],
      "stateMutability": "nonpayable",
      "type": "function"
    },
    {
      "inputs": [
        {
          "internalType": "uint256",
          "name": "_tokenId",
          "type": "uint256"
        },
        {
          "internalType": "string",
          "name": "_tokenURI",
          "type": "string"
        }
      ],
      "name": "updateTokenURI",
      "outputs": [],
      "stateMutability": "nonpayable",
      "type": "function"
    }
  ],
  "bytecode": "0x60806040523480156200001157600080fd5b50604051620043f3380380620043f3833981810160405260408110156200003757600080fd5b81019080805160405193929190846401000000008211156200005857600080fd5b838201915060208201858111156200006f57600080fd5b82518660018202830111640100000000821117156200008d57600080fd5b8083526020830192505050908051906020019080838360005b83811015620000c3578082015181840152602081019050620000a6565b50505050905090810190601f168015620000f15780820380516001836020036101000a031916815260200191505b50604052602001805160405193929190846401000000008211156200011557600080fd5b838201915060208201858111156200012c57600080fd5b82518660018202830111640100000000821117156200014a57600080fd5b8083526020830192505050908051906020019080838360005b838110156200018057808201518184015260208101905062000163565b50505050905090810190601f168015620001ae5780820380516001836020036101000a031916815260200191505b506040525050506040518060400160405280600f81526020017f547572746c6543686172616374657200000000000000000000000000000000008152506040518060400160405280600481526020017f5452544c00000000000000000000000000000000000000000000000000000000815250620002396301ffc9a760e01b6200039a60201b60201c565b81600690805190602001906200025192919062000f94565b5080600790805190602001906200026a92919062000f94565b50620002836380ac58cd60e01b6200039a60201b60201c565b6200029b635b5e139f60e01b6200039a60201b60201c565b620002b363780e9d6360e01b6200039a60201b60201c565b505033600a60006101000a81548173ffffffffffffffffffffffffffffffffffffffff021916908373ffffffffffffffffffffffffffffffffffffffff160217905550600062000308620004a360201b60201c565b90506200031c3382620004c160201b60201c565b6000600162000330620004a360201b60201c565b039050620003458185620004e760201b60201c565b62000355620004a360201b60201c565b9150620003693383620004c160201b60201c565b60016200037b620004a360201b60201c565b039050620003908184620004e760201b60201c565b505050506200103a565b63ffffffff60e01b817bffffffffffffffffffffffffffffffffffffffffffffffffffffffff1916141562000437576040517f08c379a000000000000000000000000000000000000000000000000000000000815260040180806020018281038252601c8152602001807f4552433136353a20696e76616c696420696e746572666163652069640000000081525060200191505060405180910390fd5b6001600080837bffffffffffffffffffffffffffffffffffffffffffffffffffffffff19167bffffffffffffffffffffffffffffffffffffffffffffffffffffffff1916815260200190815260200160002060006101000a81548160ff02191690831515021790555050565b6000620004bc60026200057d60201b620019a71760201c565b905090565b620004e38282604051806020016040528060008152506200059a60201b60201c565b5050565b620004f8826200061d60201b60201c565b6200054f576040517f08c379a000000000000000000000000000000000000000000000000000000000815260040180806020018281038252602c815260200180620043c7602c913960400191505060405180910390fd5b806008600084815260200190815260200160002090805190602001906200057892919062000f94565b505050565b600062000593826000016200064160201b60201c565b9050919050565b620005ac83836200065260201b60201c565b620005c160008484846200086660201b60201c565b62000618576040517f08c379a00000000000000000000000000000000000000000000000000000000081526004018080602001828103825260328152602001806200436f6032913960400191505060405180910390fd5b505050565b60006200063a82600262000aa260201b620019bc1790919060201c565b9050919050565b600081600001805490509050919050565b600073ffffffffffffffffffffffffffffffffffffffff168273ffffffffffffffffffffffffffffffffffffffff161415620006f6576040517f08c379a00000000000000000000000000000000000000000000000000000000081526004018080602001828103825260208152602001807f4552433732313a206d696e7420746f20746865207a65726f206164647265737381525060200191505060405180910390fd5b62000707816200061d60201b60201c565b156200077b576040517f08c379a000000000000000000000000000000000000000000000000000000000815260040180806020018281038252601c8152602001807f4552433732313a20746f6b656e20616c7265616479206d696e7465640000000081525060200191505060405180910390fd5b6200078f6000838362000ac460201b60201c565b620007e781600160008573ffffffffffffffffffffffffffffffffffffffff1673ffffffffffffffffffffffffffffffffffffffff16815260200190815260200160002062000ac960201b620019d61790919060201c565b50620008058183600262000aeb60201b620019f0179092919060201c565b50808273ffffffffffffffffffffffffffffffffffffffff16600073ffffffffffffffffffffffffffffffffffffffff167fddf252ad1be2c89b69c2b068fc378daa952ba7f163c4a11628f55a4df523b3ef60405160405180910390a45050565b6000620008948473ffffffffffffffffffffffffffffffffffffffff1662000b2860201b62001a251760201c565b620008a3576001905062000a9a565b606062000a2063150b7a0260e01b620008c162000b3b60201b60201c565b888787604051602401808573ffffffffffffffffffffffffffffffffffffffff1681526020018473ffffffffffffffffffffffffffffffffffffffff16815260200183815260200180602001828103825283818151815260200191508051906020019080838360005b83811015620009475780820151818401526020810190506200092a565b50505050905090810190601f168015620009755780820380516001836020036101000a031916815260200191505b5095505050505050604051602081830303815290604052907bffffffffffffffffffffffffffffffffffffffffffffffffffffffff19166020820180517bffffffffffffffffffffffffffffffffffffffffffffffffffffffff83818316178352505050506040518060600160405280603281526020016200436f603291398773ffffffffffffffffffffffffffffffffffffffff1662000b4360201b62001a38179092919060201c565b9050600081806020019051602081101562000a3a57600080fd5b8101908080519060200190929190505050905063150b7a0260e01b7bffffffffffffffffffffffffffffffffffffffffffffffffffffffff1916817bffffffffffffffffffffffffffffffffffffffffffffffffffffffff191614925050505b949350505050565b600062000abc836000018360001b62000b6360201b60201c565b905092915050565b505050565b600062000ae3836000018360001b62000b8660201b60201c565b905092915050565b600062000b1f846000018460001b8473ffffffffffffffffffffffffffffffffffffffff1660001b62000c0060201b60201c565b90509392505050565b600080823b905060008111915050919050565b600033905090565b606062000b5a848460008562000cdf60201b60201c565b90509392505050565b600080836001016000848152602001908152602001600020541415905092915050565b600062000b9a838362000e9f60201b60201c565b62000bf557826000018290806001815401808255809150506001900390600052602060002001600090919091909150558260000180549050836001016000848152602001908152602001600020819055506001905062000bfa565b600090505b92915050565b600080846001016000858152602001908152602001600020549050600081141562000ca95784600001604051806040016040528086815260200185815250908060018154018082558091505060019003906000526020600020906002020160009091909190915060008201518160000155602082015181600101555050846000018054905085600101600086815260200190815260200160002081905550600191505062000cd8565b8285600001600183038154811062000cbd57fe5b90600052602060002090600202016001018190555060009150505b9392505050565b60608247101562000d3c576040517f08c379a0000000000000000000000000000000000000000000000000000000008152600401808060200182810382526026815260200180620043a16026913960400191505060405180910390fd5b62000d4d8562000b2860201b60201c565b62000dc0576040517f08c379a000000000000000000000000000000000000000000000000000000000815260040180806020018281038252601d8152602001807f416464726573733a2063616c6c20746f206e6f6e2d636f6e747261637400000081525060200191505060405180910390fd5b600060608673ffffffffffffffffffffffffffffffffffffffff1685876040518082805190602001908083835b6020831062000e12578051825260208201915060208101905060208303925062000ded565b6001836020036101000a03801982511681845116808217855250505050505090500191505060006040518083038185875af1925050503d806000811462000e76576040519150601f19603f3d011682016040523d82523d6000602084013e62000e7b565b606091505b509150915062000e9382828662000ec260201b60201c565b92505050949350505050565b600080836001016000848152602001908152602001600020541415905092915050565b6060831562000ed45782905062000f8d565b60008351111562000ee85782518084602001fd5b816040517f08c379a00000000000000000000000000000000000000000000000000000000081526004018080602001828103825283818151815260200191508051906020019080838360005b8381101562000f5157808201518184015260208101905062000f34565b50505050905090810190601f16801562000f7f5780820380516001836020036101000a031916815260200191505b509250505060405180910390fd5b9392505050565b828054600181600116156101000203166002900490600052602060002090601f016020900481019282601f1062000fd757805160ff191683800117855562001008565b8280016001018555821562001008579182015b828111156200100757825182559160200191906001019062000fea565b5b5090506200101791906200101b565b5090565b5b80821115620010365760008160009055506001016200101c565b5090565b613325806200104a6000396000f3fe608060405234801561001057600080fd5b50600436106101375760003560e01c80634f6ccce7116100b8578063a22cb4651161007c578063a22cb4651461079c578063b88d4fde146107ec578063c87b56dd146108f1578063ce606ee014610998578063e985e9c5146109cc578063ea3593a014610a4657610137565b80634f6ccce7146105a45780636352211e146105e65780636c0360eb1461063e57806370a08231146106c157806395d89b411461071957610137565b806318e97fd1116100ff57806318e97fd1146102e657806323b872dd146103ab5780632f745c59146104195780633157631f1461047b57806342842e0e1461053657610137565b806301ffc9a71461013c57806306fdde031461019f578063081812fc14610222578063095ea7b31461027a57806318160ddd146102c8575b600080fd5b6101876004803603602081101561015257600080fd5b8101908080357bffffffffffffffffffffffffffffffffffffffffffffffffffffffff19169060200190929190505050610b15565b60405180821515815260200191505060405180910390f35b6101a7610b7c565b6040518080602001828103825283818151815260200191508051906020019080838360005b838110156101e75780820151818401526020810190506101cc565b50505050905090810190601f1680156102145780820380516001836020036101000a031916815260200191505b509250505060405180910390f35b61024e6004803603602081101561023857600080fd5b8101908080359060200190929190505050610c1e565b604051808273ffffffffffffffffffffffffffffffffffffffff16815260200191505060405180910390f35b6102c66004803603604081101561029057600080fd5b81019080803573ffffffffffffffffffffffffffffffffffffffff16906020019092919080359060200190929190505050610cb9565b005b6102d0610dfd565b6040518082815260200191505060405180910390f35b6103a9600480360360408110156102fc57600080fd5b81019080803590602001909291908035906020019064010000000081111561032357600080fd5b82018360208201111561033557600080fd5b8035906020019184600183028401116401000000008311171561035757600080fd5b91908080601f016020809104026020016040519081016040528093929190818152602001838380828437600081840152601f19601f820116905080830192505050505050509192919290505050610e0e565b005b610417600480360360608110156103c157600080fd5b81019080803573ffffffffffffffffffffffffffffffffffffffff169060200190929190803573ffffffffffffffffffffffffffffffffffffffff16906020019092919080359060200190929190505050610ec2565b005b6104656004803603604081101561042f57600080fd5b81019080803573ffffffffffffffffffffffffffffffffffffffff16906020019092919080359060200190929190505050610f38565b6040518082815260200191505060405180910390f35b6105346004803603602081101561049157600080fd5b81019080803590602001906401000000008111156104ae57600080fd5b8201836020820111156104c057600080fd5b803590602001918460018302840111640100000000831117156104e257600080fd5b91908080601f016020809104026020016040519081016040528093929190818152602001838380828437600081840152601f19601f820116905080830192505050505050509192919290505050610f93565b005b6105a26004803603606081101561054c57600080fd5b81019080803573ffffffffffffffffffffffffffffffffffffffff169060200190929190803573ffffffffffffffffffffffffffffffffffffffff1690602001909291908035906020019092919050505061106d565b005b6105d0600480360360208110156105ba57600080fd5b810190808035906020019092919050505061108d565b6040518082815260200191505060405180910390f35b610612600480360360208110156105fc57600080fd5b81019080803590602001909291905050506110b0565b604051808273ffffffffffffffffffffffffffffffffffffffff16815260200191505060405180910390f35b6106466110e7565b6040518080602001828103825283818151815260200191508051906020019080838360005b8381101561068657808201518184015260208101905061066b565b50505050905090810190601f1680156106b35780820380516001836020036101000a031916815260200191505b509250505060405180910390f35b610703600480360360208110156106d757600080fd5b81019080803573ffffffffffffffffffffffffffffffffffffffff169060200190929190505050611189565b6040518082815260200191505060405180910390f35b61072161125e565b6040518080602001828103825283818151815260200191508051906020019080838360005b83811015610761578082015181840152602081019050610746565b50505050905090810190601f16801561078e5780820380516001836020036101000a031916815260200191505b509250505060405180910390f35b6107ea600480360360408110156107b257600080fd5b81019080803573ffffffffffffffffffffffffffffffffffffffff169060200190929190803515159060200190929190505050611300565b005b6108ef6004803603608081101561080257600080fd5b81019080803573ffffffffffffffffffffffffffffffffffffffff169060200190929190803573ffffffffffffffffffffffffffffffffffffffff169060200190929190803590602001909291908035906020019064010000000081111561086957600080fd5b82018360208201111561087b57600080fd5b8035906020019184600183028401116401000000008311171561089d57600080fd5b91908080601f016020809104026020016040519081016040528093929190818152602001838380828437600081840152601f19601f8201169050808301925050505050505091929192905050506114b6565b005b61091d6004803603602081101561090757600080fd5b810190808035906020019092919050505061152e565b6040518080602001828103825283818151815260200191508051906020019080838360005b8381101561095d578082015181840152602081019050610942565b50505050905090810190601f16801561098a5780820380516001836020036101000a031916815260200191505b509250505060405180910390f35b6109a06117ff565b604051808273ffffffffffffffffffffffffffffffffffffffff16815260200191505060405180910390f35b610a2e600480360360408110156109e257600080fd5b81019080803573ffffffffffffffffffffffffffffffffffffffff169060200190929190803573ffffffffffffffffffffffffffffffffffffffff169060200190929190505050611825565b60405180821515815260200191505060405180910390f35b610b1360048036036060811015610a5c57600080fd5b81019080803590602001909291908035906020019092919080359060200190640100000000811115610a8d57600080fd5b820183602082011115610a9f57600080fd5b80359060200191846001830284011164010000000083111715610ac157600080fd5b91908080601f016020809104026020016040519081016040528093929190818152602001838380828437600081840152601f19601f8201169050808301925050505050505091929192905050506118b9565b005b6000806000837bffffffffffffffffffffffffffffffffffffffffffffffffffffffff19167bffffffffffffffffffffffffffffffffffffffffffffffffffffffff1916815260200190815260200160002060009054906101000a900460ff169050919050565b606060068054600181600116156101000203166002900480601f016020809104026020016040519081016040528092919081815260200182805460018160011615610100020316600290048015610c145780601f10610be957610100808354040283529160200191610c14565b820191906000526020600020905b815481529060010190602001808311610bf757829003601f168201915b5050505050905090565b6000610c2982611a50565b610c7e576040517f08c379a000000000000000000000000000000000000000000000000000000000815260040180806020018281038252602c8152602001806131ca602c913960400191505060405180910390fd5b6004600083815260200190815260200160002060009054906101000a900473ffffffffffffffffffffffffffffffffffffffff169050919050565b6000610cc4826110b0565b90508073ffffffffffffffffffffffffffffffffffffffff168373ffffffffffffffffffffffffffffffffffffffff161415610d4b576040517f08c379a000000000000000000000000000000000000000000000000000000000815260040180806020018281038252602181526020018061327a6021913960400191505060405180910390fd5b8073ffffffffffffffffffffffffffffffffffffffff16610d6a611a6d565b73ffffffffffffffffffffffffffffffffffffffff161480610d995750610d9881610d93611a6d565b611825565b5b610dee576040517f08c379a000000000000000000000000000000000000000000000000000000000815260040180806020018281038252603881526020018061311d6038913960400191505060405180910390fd5b610df88383611a75565b505050565b6000610e0960026119a7565b905090565b600a60009054906101000a900473ffffffffffffffffffffffffffffffffffffffff1673ffffffffffffffffffffffffffffffffffffffff163373ffffffffffffffffffffffffffffffffffffffff1614610eb4576040517f08c379a00000000000000000000000000000000000000000000000000000000081526004018080602001828103825260248152602001806132cc6024913960400191505060405180910390fd5b610ebe8282611b2e565b5050565b610ed3610ecd611a6d565b82611bb8565b610f28576040517f08c379a000000000000000000000000000000000000000000000000000000000815260040180806020018281038252603181526020018061329b6031913960400191505060405180910390fd5b610f33838383611cac565b505050565b6000610f8b82600160008673ffffffffffffffffffffffffffffffffffffffff1673ffffffffffffffffffffffffffffffffffffffff168152602001908152602001600020611eef90919063ffffffff16565b905092915050565b600a60009054906101000a900473ffffffffffffffffffffffffffffffffffffffff1673ffffffffffffffffffffffffffffffffffffffff163373ffffffffffffffffffffffffffffffffffffffff1614611039576040517f08c379a00000000000000000000000000000000000000000000000000000000081526004018080602001828103825260248152602001806132cc6024913960400191505060405180910390fd5b6000611043610dfd565b905061104f3382611f09565b6000600161105b610dfd565b0390506110688184611b2e565b505050565b611088838383604051806020016040528060008152506114b6565b505050565b6000806110a4836002611f2790919063ffffffff16565b50905080915050919050565b60006110e08260405180606001604052806029815260200161317f602991396002611f539092919063ffffffff16565b9050919050565b606060098054600181600116156101000203166002900480601f01602080910402602001604051908101604052809291908181526020018280546001816001161561010002031660029004801561117f5780601f106111545761010080835404028352916020019161117f565b820191906000526020600020905b81548152906001019060200180831161116257829003601f168201915b5050505050905090565b60008073ffffffffffffffffffffffffffffffffffffffff168273ffffffffffffffffffffffffffffffffffffffff161415611210576040517f08c379a000000000000000000000000000000000000000000000000000000000815260040180806020018281038252602a815260200180613155602a913960400191505060405180910390fd5b611257600160008473ffffffffffffffffffffffffffffffffffffffff1673ffffffffffffffffffffffffffffffffffffffff168152602001908152602001600020611f72565b9050919050565b606060078054600181600116156101000203166002900480601f0160208091040260200160405190810160405280929190818152602001828054600181600116156101000203166002900480156112f65780601f106112cb576101008083540402835291602001916112f6565b820191906000526020600020905b8154815290600101906020018083116112d957829003601f168201915b5050505050905090565b611308611a6d565b73ffffffffffffffffffffffffffffffffffffffff168273ffffffffffffffffffffffffffffffffffffffff1614156113a9576040517f08c379a00000000000000000000000000000000000000000000000000000000081526004018080602001828103825260198152602001807f4552433732313a20617070726f766520746f2063616c6c65720000000000000081525060200191505060405180910390fd5b80600560006113b6611a6d565b73ffffffffffffffffffffffffffffffffffffffff1673ffffffffffffffffffffffffffffffffffffffff16815260200190815260200160002060008473ffffffffffffffffffffffffffffffffffffffff1673ffffffffffffffffffffffffffffffffffffffff16815260200190815260200160002060006101000a81548160ff0219169083151502179055508173ffffffffffffffffffffffffffffffffffffffff16611463611a6d565b73ffffffffffffffffffffffffffffffffffffffff167f17307eab39ab6107e8899845ad3d59bd9653f200f220920489ca2b5937696c318360405180821515815260200191505060405180910390a35050565b6114c76114c1611a6d565b83611bb8565b61151c576040517f08c379a000000000000000000000000000000000000000000000000000000000815260040180806020018281038252603181526020018061329b6031913960400191505060405180910390fd5b61152884848484611f87565b50505050565b606061153982611a50565b61158e576040517f08c379a000000000000000000000000000000000000000000000000000000000815260040180806020018281038252602f81526020018061324b602f913960400191505060405180910390fd5b6060600860008481526020019081526020016000208054600181600116156101000203166002900480601f0160208091040260200160405190810160405280929190818152602001828054600181600116156101000203166002900480156116375780601f1061160c57610100808354040283529160200191611637565b820191906000526020600020905b81548152906001019060200180831161161a57829003601f168201915b5050505050905060606116486110e7565b905060008151141561165e5781925050506117fa565b60008251111561172f5780826040516020018083805190602001908083835b602083106116a0578051825260208201915060208101905060208303925061167d565b6001836020036101000a03801982511681845116808217855250505050505090500182805190602001908083835b602083106116f157805182526020820191506020810190506020830392506116ce565b6001836020036101000a03801982511681845116808217855250505050505090500192505050604051602081830303815290604052925050506117fa565b8061173985611ff9565b6040516020018083805190602001908083835b6020831061176f578051825260208201915060208101905060208303925061174c565b6001836020036101000a03801982511681845116808217855250505050505090500182805190602001908083835b602083106117c0578051825260208201915060208101905060208303925061179d565b6001836020036101000a03801982511681845116808217855250505050505090500192505050604051602081830303815290604052925050505b919050565b600a60009054906101000a900473ffffffffffffffffffffffffffffffffffffffff1681565b6000600560008473ffffffffffffffffffffffffffffffffffffffff1673ffffffffffffffffffffffffffffffffffffffff16815260200190815260200160002060008373ffffffffffffffffffffffffffffffffffffffff1673ffffffffffffffffffffffffffffffffffffffff16815260200190815260200160002060009054906101000a900460ff16905092915050565b600a60009054906101000a900473ffffffffffffffffffffffffffffffffffffffff1673ffffffffffffffffffffffffffffffffffffffff163373ffffffffffffffffffffffffffffffffffffffff161461195f576040517f08c379a00000000000000000000000000000000000000000000000000000000081526004018080602001828103825260248152602001806132cc6024913960400191505060405180910390fd5b61196883612140565b61197182612140565b600061197b610dfd565b90506119873382611f09565b60006001611993610dfd565b0390506119a08184611b2e565b5050505050565b60006119b58260000161227a565b9050919050565b60006119ce836000018360001b61228b565b905092915050565b60006119e8836000018360001b6122ae565b905092915050565b6000611a1c846000018460001b8473ffffffffffffffffffffffffffffffffffffffff1660001b61231e565b90509392505050565b600080823b905060008111915050919050565b6060611a4784846000856123fa565b90509392505050565b6000611a668260026119bc90919063ffffffff16565b9050919050565b600033905090565b816004600083815260200190815260200160002060006101000a81548173ffffffffffffffffffffffffffffffffffffffff021916908373ffffffffffffffffffffffffffffffffffffffff160217905550808273ffffffffffffffffffffffffffffffffffffffff16611ae8836110b0565b73ffffffffffffffffffffffffffffffffffffffff167f8c5be1e5ebec7d5bd14f71427d1e84f3dd0314c0f7b2291e5b200ac8c7c3b92560405160405180910390a45050565b611b3782611a50565b611b8c576040517f08c379a000000000000000000000000000000000000000000000000000000000815260040180806020018281038252602c8152602001806131f6602c913960400191505060405180910390fd5b80600860008481526020019081526020016000209080519060200190611bb3929190612f6d565b505050565b6000611bc382611a50565b611c18576040517f08c379a000000000000000000000000000000000000000000000000000000000815260040180806020018281038252602c8152602001806130f1602c913960400191505060405180910390fd5b6000611c23836110b0565b90508073ffffffffffffffffffffffffffffffffffffffff168473ffffffffffffffffffffffffffffffffffffffff161480611c9257508373ffffffffffffffffffffffffffffffffffffffff16611c7a84610c1e565b73ffffffffffffffffffffffffffffffffffffffff16145b80611ca35750611ca28185611825565b5b91505092915050565b8273ffffffffffffffffffffffffffffffffffffffff16611ccc826110b0565b73ffffffffffffffffffffffffffffffffffffffff1614611d38576040517f08c379a00000000000000000000000000000000000000000000000000000000081526004018080602001828103825260298152602001806132226029913960400191505060405180910390fd5b600073ffffffffffffffffffffffffffffffffffffffff168273ffffffffffffffffffffffffffffffffffffffff161415611dbe576040517f08c379a00000000000000000000000000000000000000000000000000000000081526004018080602001828103825260248152602001806130a76024913960400191505060405180910390fd5b611dc98383836125a3565b611dd4600082611a75565b611e2581600160008673ffffffffffffffffffffffffffffffffffffffff1673ffffffffffffffffffffffffffffffffffffffff1681526020019081526020016000206125a890919063ffffffff16565b50611e7781600160008573ffffffffffffffffffffffffffffffffffffffff1673ffffffffffffffffffffffffffffffffffffffff1681526020019081526020016000206119d690919063ffffffff16565b50611e8e818360026119f09092919063ffffffff16565b50808273ffffffffffffffffffffffffffffffffffffffff168473ffffffffffffffffffffffffffffffffffffffff167fddf252ad1be2c89b69c2b068fc378daa952ba7f163c4a11628f55a4df523b3ef60405160405180910390a4505050565b6000611efe83600001836125c2565b60001c905092915050565b611f23828260405180602001604052806000815250612645565b5050565b600080600080611f3a86600001866126b6565b915091508160001c8160001c9350935050509250929050565b6000611f66846000018460001b8461274f565b60001c90509392505050565b6000611f8082600001612845565b9050919050565b611f92848484611cac565b611f9e84848484612856565b611ff3576040517f08c379a00000000000000000000000000000000000000000000000000000000081526004018080602001828103825260328152602001806130756032913960400191505060405180910390fd5b50505050565b60606000821415612041576040518060400160405280600181526020017f3000000000000000000000000000000000000000000000000000000000000000815250905061213b565b600082905060005b6000821461206b578080600101915050600a828161206357fe5b049150612049565b60608167ffffffffffffffff8111801561208457600080fd5b506040519080825280601f01601f1916602001820160405280156120b75781602001600182028036833780820191505090505b50905060006001830390508593505b6000841461213357600a84816120d857fe5b0660300160f81b828280600190039350815181106120f257fe5b60200101907effffffffffffffffffffffffffffffffffffffffffffffffffffffffffffff1916908160001a905350600a848161212b57fe5b0493506120c6565b819450505050505b919050565b600061214b826110b0565b9050612159816000846125a3565b612164600083611a75565b600060086000848152602001908152602001600020805460018160011615610100020316600290049050146121b3576008600083815260200190815260200160002060006121b29190612fed565b5b61220482600160008473ffffffffffffffffffffffffffffffffffffffff1673ffffffffffffffffffffffffffffffffffffffff1681526020019081526020016000206125a890919063ffffffff16565b50612219826002612a6f90919063ffffffff16565b5081600073ffffffffffffffffffffffffffffffffffffffff168273ffffffffffffffffffffffffffffffffffffffff167fddf252ad1be2c89b69c2b068fc378daa952ba7f163c4a11628f55a4df523b3ef60405160405180910390a45050565b600081600001805490509050919050565b600080836001016000848152602001908152602001600020541415905092915050565b60006122ba8383612a89565b612313578260000182908060018154018082558091505060019003906000526020600020016000909190919091505582600001805490508360010160008481526020019081526020016000208190555060019050612318565b600090505b92915050565b60008084600101600085815260200190815260200160002054905060008114156123c5578460000160405180604001604052808681526020018581525090806001815401808255809150506001900390600052602060002090600202016000909190919091506000820151816000015560208201518160010155505084600001805490508560010160008681526020019081526020016000208190555060019150506123f3565b828560000160018303815481106123d857fe5b90600052602060002090600202016001018190555060009150505b9392505050565b606082471015612455576040517f08c379a00000000000000000000000000000000000000000000000000000000081526004018080602001828103825260268152602001806130cb6026913960400191505060405180910390fd5b61245e85611a25565b6124d0576040517f08c379a000000000000000000000000000000000000000000000000000000000815260040180806020018281038252601d8152602001807f416464726573733a2063616c6c20746f206e6f6e2d636f6e747261637400000081525060200191505060405180910390fd5b600060608673ffffffffffffffffffffffffffffffffffffffff1685876040518082805190602001908083835b6020831061252057805182526020820191506020810190506020830392506124fd565b6001836020036101000a03801982511681845116808217855250505050505090500191505060006040518083038185875af1925050503d8060008114612582576040519150601f19603f3d011682016040523d82523d6000602084013e612587565b606091505b5091509150612597828286612aac565b92505050949350505050565b505050565b60006125ba836000018360001b612b78565b905092915050565b600081836000018054905011612623576040517f08c379a00000000000000000000000000000000000000000000000000000000081526004018080602001828103825260228152602001806130536022913960400191505060405180910390fd5b82600001828154811061263257fe5b9060005260206000200154905092915050565b61264f8383612c60565b61265c6000848484612856565b6126b1576040517f08c379a00000000000000000000000000000000000000000000000000000000081526004018080602001828103825260328152602001806130756032913960400191505060405180910390fd5b505050565b60008082846000018054905011612718576040517f08c379a00000000000000000000000000000000000000000000000000000000081526004018080602001828103825260228152602001806131a86022913960400191505060405180910390fd5b600084600001848154811061272957fe5b906000526020600020906002020190508060000154816001015492509250509250929050565b60008084600101600085815260200190815260200160002054905060008114158390612816576040517f08c379a00000000000000000000000000000000000000000000000000000000081526004018080602001828103825283818151815260200191508051906020019080838360005b838110156127db5780820151818401526020810190506127c0565b50505050905090810190601f1680156128085780820380516001836020036101000a031916815260200191505b509250505060405180910390fd5b5084600001600182038154811061282957fe5b9060005260206000209060020201600101549150509392505050565b600081600001805490509050919050565b60006128778473ffffffffffffffffffffffffffffffffffffffff16611a25565b6128845760019050612a67565b60606129ee63150b7a0260e01b612899611a6d565b888787604051602401808573ffffffffffffffffffffffffffffffffffffffff1681526020018473ffffffffffffffffffffffffffffffffffffffff16815260200183815260200180602001828103825283818151815260200191508051906020019080838360005b8381101561291d578082015181840152602081019050612902565b50505050905090810190601f16801561294a5780820380516001836020036101000a031916815260200191505b5095505050505050604051602081830303815290604052907bffffffffffffffffffffffffffffffffffffffffffffffffffffffff19166020820180517bffffffffffffffffffffffffffffffffffffffffffffffffffffffff8381831617835250505050604051806060016040528060328152602001613075603291398773ffffffffffffffffffffffffffffffffffffffff16611a389092919063ffffffff16565b90506000818060200190516020811015612a0757600080fd5b8101908080519060200190929190505050905063150b7a0260e01b7bffffffffffffffffffffffffffffffffffffffffffffffffffffffff1916817bffffffffffffffffffffffffffffffffffffffffffffffffffffffff191614925050505b949350505050565b6000612a81836000018360001b612e54565b905092915050565b600080836001016000848152602001908152602001600020541415905092915050565b60608315612abc57829050612b71565b600083511115612acf5782518084602001fd5b816040517f08c379a00000000000000000000000000000000000000000000000000000000081526004018080602001828103825283818151815260200191508051906020019080838360005b83811015612b36578082015181840152602081019050612b1b565b50505050905090810190601f168015612b635780820380516001836020036101000a031916815260200191505b509250505060405180910390fd5b9392505050565b60008083600101600084815260200190815260200160002054905060008114612c545760006001820390506000600186600001805490500390506000866000018281548110612bc357fe5b9060005260206000200154905080876000018481548110612be057fe5b9060005260206000200181905550600183018760010160008381526020019081526020016000208190555086600001805480612c1857fe5b60019003818190600052602060002001600090559055866001016000878152602001908152602001600020600090556001945050505050612c5a565b60009150505b92915050565b600073ffffffffffffffffffffffffffffffffffffffff168273ffffffffffffffffffffffffffffffffffffffff161415612d03576040517f08c379a00000000000000000000000000000000000000000000000000000000081526004018080602001828103825260208152602001807f4552433732313a206d696e7420746f20746865207a65726f206164647265737381525060200191505060405180910390fd5b612d0c81611a50565b15612d7f576040517f08c379a000000000000000000000000000000000000000000000000000000000815260040180806020018281038252601c8152602001807f4552433732313a20746f6b656e20616c7265616479206d696e7465640000000081525060200191505060405180910390fd5b612d8b600083836125a3565b612ddc81600160008573ffffffffffffffffffffffffffffffffffffffff1673ffffffffffffffffffffffffffffffffffffffff1681526020019081526020016000206119d690919063ffffffff16565b50612df3818360026119f09092919063ffffffff16565b50808273ffffffffffffffffffffffffffffffffffffffff16600073ffffffffffffffffffffffffffffffffffffffff167fddf252ad1be2c89b69c2b068fc378daa952ba7f163c4a11628f55a4df523b3ef60405160405180910390a45050565b60008083600101600084815260200190815260200160002054905060008114612f615760006001820390506000600186600001805490500390506000866000018281548110612e9f57fe5b9060005260206000209060020201905080876000018481548110612ebf57fe5b9060005260206000209060020201600082015481600001556001820154816001015590505060018301876001016000836000015481526020019081526020016000208190555086600001805480612f1257fe5b6001900381819060005260206000209060020201600080820160009055600182016000905550509055866001016000878152602001908152602001600020600090556001945050505050612f67565b60009150505b92915050565b828054600181600116156101000203166002900490600052602060002090601f016020900481019282601f10612fae57805160ff1916838001178555612fdc565b82800160010185558215612fdc579182015b82811115612fdb578251825591602001919060010190612fc0565b5b509050612fe99190613035565b5090565b50805460018160011615610100020316600290046000825580601f106130135750613032565b601f0160209004906000526020600020908101906130319190613035565b5b50565b5b8082111561304e576000816000905550600101613036565b509056fe456e756d657261626c655365743a20696e646578206f7574206f6620626f756e64734552433732313a207472616e7366657220746f206e6f6e20455243373231526563656976657220696d706c656d656e7465724552433732313a207472616e7366657220746f20746865207a65726f2061646472657373416464726573733a20696e73756666696369656e742062616c616e636520666f722063616c6c4552433732313a206f70657261746f7220717565727920666f72206e6f6e6578697374656e7420746f6b656e4552433732313a20617070726f76652063616c6c6572206973206e6f74206f776e6572206e6f7220617070726f76656420666f7220616c6c4552433732313a2062616c616e636520717565727920666f7220746865207a65726f20616464726573734552433732313a206f776e657220717565727920666f72206e6f6e6578697374656e7420746f6b656e456e756d657261626c654d61703a20696e646578206f7574206f6620626f756e64734552433732313a20617070726f76656420717565727920666f72206e6f6e6578697374656e7420746f6b656e4552433732314d657461646174613a2055524920736574206f66206e6f6e6578697374656e7420746f6b656e4552433732313a207472616e73666572206f6620746f6b656e2074686174206973206e6f74206f776e4552433732314d657461646174613a2055524920717565727920666f72206e6f6e6578697374656e7420746f6b656e4552433732313a20617070726f76616c20746f2063757272656e74206f776e65724552433732313a207472616e736665722063616c6c6572206973206e6f74206f776e6572206e6f7220617070726f7665645468652063616c6c6572206973206e6f742074686520636f6e7472616374206f776e6572a26469706673582212205e62a1990b36609b354e036a08d901fa6bccc007e8a6440bf0f5e290e9333cb764736f6c634300070000334552433732313a207472616e7366657220746f206e6f6e20455243373231526563656976657220696d706c656d656e746572416464726573733a20696e73756666696369656e742062616c616e636520666f722063616c6c4552433732314d657461646174613a2055524920736574206f66206e6f6e6578697374656e7420746f6b656e",
  "immutableReferences": {},
  "source": "// SPDX-License-Identifier: MIT\r\npragma solidity ^0.7.0;\r\n\r\nimport \"@openzeppelin/contracts/token/ERC721/ERC721.sol\";\r\n\r\ncontract Token is ERC721 {\r\n  address public contractOwner; // Owner of this contract\r\n\r\n  constructor(string memory parent1, string memory parent2) public ERC721(\"TurtleCharacter\", \"TRTL\") {\r\n    contractOwner = msg.sender;\r\n\r\n    uint256 tokenId = totalSupply();\r\n    _safeMint(msg.sender, tokenId);\r\n    uint256 lastTokenId = totalSupply() - 1;\r\n    _setTokenURI(lastTokenId, parent1);\r\n\r\n    tokenId = totalSupply();\r\n    _safeMint(msg.sender, tokenId);\r\n    lastTokenId = totalSupply() - 1;\r\n    _setTokenURI(lastTokenId, parent2);\r\n  }\r\n\r\n  // Modifer that checks to see if msg.sender == contractOwner\r\n  modifier onlyContractOwner() {\r\n    require(\r\n      msg.sender == contractOwner,\r\n      \"The caller is not the contract owner\"\r\n    );\r\n    _;\r\n  }\r\n\r\n  function breedNFT(uint tokenId1, uint tokenId2, string memory _tokenURI) public onlyContractOwner {\r\n    _burn(tokenId1);\r\n    _burn(tokenId2);\r\n    uint256 tokenId = totalSupply();\r\n    _safeMint(msg.sender, tokenId);\r\n    uint256 lastTokenId = totalSupply() - 1;\r\n    _setTokenURI(lastTokenId, _tokenURI);\r\n  }\r\n\r\n  function mintNewNFT(string memory _tokenURI) public onlyContractOwner {\r\n    uint256 tokenId = totalSupply();\r\n    _safeMint(msg.sender, tokenId);\r\n    uint256 lastTokenId = totalSupply() - 1;\r\n    _setTokenURI(lastTokenId, _tokenURI);\r\n  }\r\n\r\n  // Function 'updateTokenURI' updates the Token URI for a specific Token\r\n  function updateTokenURI(uint256 _tokenId, string memory _tokenURI)\r\n    public\r\n    onlyContractOwner\r\n  {\r\n    _setTokenURI(_tokenId, _tokenURI);\r\n  }\r\n}\r\n",
  "sourcePath": "D:/gennft/contracts/Token.sol",
  "compiler": {
    "name": "solc",
    "version": "0.7.0+commit.9e61f92b.Emscripten.clang"
  },
  "schemaVersion": "3.4.1",
  "updatedAt": "2021-09-22T20:10:26.655Z",
  "networkType": "ethereum",
  "devdoc": {
    "kind": "dev",
    "methods": {
      "approve(address,uint256)": {
        "details": "See {IERC721-approve}."
      },
      "balanceOf(address)": {
        "details": "See {IERC721-balanceOf}."
      },
      "baseURI()": {
        "details": "Returns the base URI set via {_setBaseURI}. This will be automatically added as a prefix in {tokenURI} to each token's URI, or to the token ID if no specific URI is set for that token ID."
      },
      "getApproved(uint256)": {
        "details": "See {IERC721-getApproved}."
      },
      "isApprovedForAll(address,address)": {
        "details": "See {IERC721-isApprovedForAll}."
      },
      "name()": {
        "details": "See {IERC721Metadata-name}."
      },
      "ownerOf(uint256)": {
        "details": "See {IERC721-ownerOf}."
      },
      "safeTransferFrom(address,address,uint256)": {
        "details": "See {IERC721-safeTransferFrom}."
      },
      "safeTransferFrom(address,address,uint256,bytes)": {
        "details": "See {IERC721-safeTransferFrom}."
      },
      "setApprovalForAll(address,bool)": {
        "details": "See {IERC721-setApprovalForAll}."
      },
      "supportsInterface(bytes4)": {
        "details": "See {IERC165-supportsInterface}. Time complexity O(1), guaranteed to always use less than 30 000 gas."
      },
      "symbol()": {
        "details": "See {IERC721Metadata-symbol}."
      },
      "tokenByIndex(uint256)": {
        "details": "See {IERC721Enumerable-tokenByIndex}."
      },
      "tokenOfOwnerByIndex(address,uint256)": {
        "details": "See {IERC721Enumerable-tokenOfOwnerByIndex}."
      },
      "tokenURI(uint256)": {
        "details": "See {IERC721Metadata-tokenURI}."
      },
      "totalSupply()": {
        "details": "See {IERC721Enumerable-totalSupply}."
      },
      "transferFrom(address,address,uint256)": {
        "details": "See {IERC721-transferFrom}."
      }
    },
    "version": 1
  },
  "userdoc": {
    "kind": "user",
    "methods": {},
    "version": 1
  }
}